:020000040000FA
:100000000000CE28B001B1013008113A031D0C28C0
:100010003108003A0319C3283008B2003108B30090
:10002000B401B5013508803E803E031D19286430B7
:1000300034020318042883120512B601851AB60A81
:100040003608013A031DBF280A30AD000030AE006B
:100050003408AF0035086A21B7002F08B600B20A8D
:100060000319B30A3208B0003308B1000314B71FF4
:1000700003100318B9283708803E803E031D42282C
:100080000A3036020318B92800308A004B30360790
:1000900003188A0A820055285F28692873287D285A
:1000A000872891289B28A528AF2883120510851042
:1000B00005110512C830AF0000303E22BF28831260
:1000C0000514851005110512C830AF0000303E221E
:1000D000BF2883120510851405110512C830AF0022
:1000E00000303E22BF288312051485140511051225
:1000F000C830AF0000303E22BF28831205108510A3
:1001000005150512C830AF0000303E22BF2883120B
:100110000514851005150512C830AF0000303E22C9
:10012000BF2883120510851405150512C830AF00CD
:1001300000303E22BF2883120514851405150512D0
:10014000C830AF0000303E22BF2883120510851052
:1001500005110516C830AF0000303E22BF288312BB
:100160000514851005110516C830AF0000303E2279
:10017000BF2883128501C830AF0000303E22B40A88
:100180000319B50A122883120514851005110516E6
:10019000C830AF0000303E22652208007330AE0048
:1001A0000230AF008030000000001D22000000007F
:1001B00083120000C1002F08C0007530C200023059
:1001C000C300831200004008C4004108C500FF308E
:1001D000C007031CC1034508440403196629043001
:1001E0004207C400C501C50D4308C5074408AE0059
:1001F0004508AF008030000000001D220000000014
:1002000083120000C7002F08C6004208AE00430852
:10021000AF008030000000001D22000000008312AB
:100220000000C900C5002F08C400C8000230420702
:10023000C400C501C50D4308C5074408AE00450804
:10024000AF008030000000001D220000000083127B
:100250000000C500CB002F08CA00C40083120000B4
:100260004608CA004708CB00FF30C607031CC70377
:100270004B084A0403195F294808AE004908AF003B
:100280008030000000000A220000000083120000FD
:10029000CA004408831203138400831383120000EE
:1002A000451883174A088312031380008312000045
:1002B000C80A0319C90AC40A0319C50A2E29063037
:1002C00083120000C2070318C30AE12800000000DF
:1002D000652A080083120000CD002F08CC002E08EC
:1002E000CF002D08CE000314CD1F0310D001D00D78
:1002F0005008031983294C09D1004D09D200D10AB5
:100300000319D20A8929831200004C08D1004D0834
:10031000D200831200005108CC005208CD00031413
:10032000CF1F0310D101D10D510803199F294E0988
:10033000D2004F09D300D20A0319D30AA529831288
:1003400000004E08D2004F08D3008312000052086C
:10035000CE00AD005308CF00AE004C08AF004D08F2
:1003600000000000D0210000000083120000CD003A
:100370002F08CC005108D00650080319CA294C098F
:10038000D0004D09CE00D00A0319CE0A5008AF00A4
:100390004E08CF29831200004C08AF004D0808001A
:1003A00083120000D5002F08D4002E08D7002D0896
:1003B000D600D801D9011030DA00831200005508A8
:1003C0008039031D0130DB000310D40DD50D03105F
:1003D000D80DD90D5B08031D581457085902031D89
:1003E000F32956085802031CFE2983120000560800
:1003F000D8025708031C570FD90254148312000067
:100400005A03DB00DA005B08031DDD295408AF0046
:1004100055080800003A0319112A803A0319182ACE
:1004200000342E08840083132F1883170008080057
:100430002F088A002E0882000800003A0319252A96
:10044000803A03192F2AAF0100342E088400831349
:100450002F1883170008AF00840A00080800000066
:1004600000001822AD00AE0FAF03AF0A000000007D
:100470001822AC002D08AF002C080800B9002F0886
:10048000B800BA01BB0139083B02031D492A3808EC
:100490003A020318642AFB30BC000430BD00FF3070
:1004A0003C07BE00FF30BF003D0803183D0FBF07EB
:1004B0003E08BC003F08BD003F083E04031D4F2A14
:1004C000BA0A0319BB0A432A0800203083168500A4
:1004D0008312851183169F01831205108510051163
:1004E00005120220080002340034813402345C34E6
:1004F000003402340034833402345E340034013476
:08050000003400340034003423
:00000001FF
